{
  "_format": "hh-sol-artifact-1",
  "contractName": "DecentralizedStorageManager",
  "sourceName": "contracts/FileManager.sol",
  "abi": [
    {
      "inputs": [],
      "stateMutability": "nonpayable",
      "type": "constructor"
    },
    {
      "inputs": [
        {
          "internalType": "address",
          "name": "owner",
          "type": "address"
        }
      ],
      "name": "OwnableInvalidOwner",
      "type": "error"
    },
    {
      "inputs": [
        {
          "internalType": "address",
          "name": "account",
          "type": "address"
        }
      ],
      "name": "OwnableUnauthorizedAccount",
      "type": "error"
    },
    {
      "inputs": [],
      "name": "ReentrancyGuardReentrantCall",
      "type": "error"
    },
    {
      "anonymous": false,
      "inputs": [
        {
          "indexed": true,
          "internalType": "string",
          "name": "fileId",
          "type": "string"
        },
        {
          "indexed": true,
          "internalType": "address",
          "name": "user",
          "type": "address"
        }
      ],
      "name": "FileAccessed",
      "type": "event"
    },
    {
      "anonymous": false,
      "inputs": [
        {
          "indexed": true,
          "internalType": "string",
          "name": "fileId",
          "type": "string"
        },
        {
          "indexed": true,
          "internalType": "address",
          "name": "owner",
          "type": "address"
        },
        {
          "indexed": false,
          "internalType": "uint256",
          "name": "fileSize",
          "type": "uint256"
        }
      ],
      "name": "FileUploaded",
      "type": "event"
    },
    {
      "anonymous": false,
      "inputs": [
        {
          "indexed": true,
          "internalType": "address",
          "name": "previousOwner",
          "type": "address"
        },
        {
          "indexed": true,
          "internalType": "address",
          "name": "newOwner",
          "type": "address"
        }
      ],
      "name": "OwnershipTransferred",
      "type": "event"
    },
    {
      "anonymous": false,
      "inputs": [
        {
          "indexed": true,
          "internalType": "bytes32",
          "name": "contractId",
          "type": "bytes32"
        },
        {
          "indexed": false,
          "internalType": "address",
          "name": "provider",
          "type": "address"
        },
        {
          "indexed": false,
          "internalType": "bool",
          "name": "success",
          "type": "bool"
        }
      ],
      "name": "ProofOfStorageSubmitted",
      "type": "event"
    },
    {
      "anonymous": false,
      "inputs": [
        {
          "indexed": true,
          "internalType": "address",
          "name": "provider",
          "type": "address"
        },
        {
          "indexed": false,
          "internalType": "string",
          "name": "nodeId",
          "type": "string"
        }
      ],
      "name": "ProviderRegistered",
      "type": "event"
    },
    {
      "anonymous": false,
      "inputs": [
        {
          "indexed": true,
          "internalType": "bytes32",
          "name": "contractId",
          "type": "bytes32"
        },
        {
          "indexed": false,
          "internalType": "string",
          "name": "fileId",
          "type": "string"
        },
        {
          "indexed": false,
          "internalType": "address",
          "name": "provider",
          "type": "address"
        },
        {
          "indexed": false,
          "internalType": "address",
          "name": "client",
          "type": "address"
        }
      ],
      "name": "StorageContractCreated",
      "type": "event"
    },
    {
      "inputs": [],
      "name": "MAX_REPUTATION",
      "outputs": [
        {
          "internalType": "uint256",
          "name": "",
          "type": "uint256"
        }
      ],
      "stateMutability": "view",
      "type": "function"
    },
    {
      "inputs": [],
      "name": "PROOF_INTERVAL",
      "outputs": [
        {
          "internalType": "uint256",
          "name": "",
          "type": "uint256"
        }
      ],
      "stateMutability": "view",
      "type": "function"
    },
    {
      "inputs": [
        {
          "internalType": "string",
          "name": "_fileId",
          "type": "string"
        }
      ],
      "name": "accessFile",
      "outputs": [],
      "stateMutability": "nonpayable",
      "type": "function"
    },
    {
      "inputs": [
        {
          "internalType": "uint256",
          "name": "",
          "type": "uint256"
        }
      ],
      "name": "activeProviders",
      "outputs": [
        {
          "internalType": "address",
          "name": "",
          "type": "address"
        }
      ],
      "stateMutability": "view",
      "type": "function"
    },
    {
      "inputs": [
        {
          "internalType": "uint256",
          "name": "",
          "type": "uint256"
        }
      ],
      "name": "allFiles",
      "outputs": [
        {
          "internalType": "string",
          "name": "",
          "type": "string"
        }
      ],
      "stateMutability": "view",
      "type": "function"
    },
    {
      "inputs": [
        {
          "internalType": "address",
          "name": "_provider",
          "type": "address"
        },
        {
          "internalType": "string",
          "name": "_reason",
          "type": "string"
        }
      ],
      "name": "deactivateProvider",
      "outputs": [],
      "stateMutability": "nonpayable",
      "type": "function"
    },
    {
      "inputs": [
        {
          "internalType": "string",
          "name": "",
          "type": "string"
        }
      ],
      "name": "fileMetadata",
      "outputs": [
        {
          "internalType": "string",
          "name": "fileId",
          "type": "string"
        },
        {
          "internalType": "string",
          "name": "contentHash",
          "type": "string"
        },
        {
          "internalType": "address",
          "name": "owner",
          "type": "address"
        },
        {
          "internalType": "uint256",
          "name": "fileSize",
          "type": "uint256"
        },
        {
          "internalType": "uint256",
          "name": "uploadTimestamp",
          "type": "uint256"
        },
        {
          "internalType": "uint256",
          "name": "lastAccessTimestamp",
          "type": "uint256"
        },
        {
          "internalType": "string",
          "name": "encryptionKey",
          "type": "string"
        },
        {
          "internalType": "bool",
          "name": "isPublic",
          "type": "bool"
        },
        {
          "internalType": "uint256",
          "name": "accessCount",
          "type": "uint256"
        },
        {
          "internalType": "uint256",
          "name": "replicationFactor",
          "type": "uint256"
        }
      ],
      "stateMutability": "view",
      "type": "function"
    },
    {
      "inputs": [
        {
          "internalType": "string",
          "name": "_fileId",
          "type": "string"
        }
      ],
      "name": "getFileInfo",
      "outputs": [
        {
          "internalType": "string",
          "name": "fileId",
          "type": "string"
        },
        {
          "internalType": "string",
          "name": "contentHash",
          "type": "string"
        },
        {
          "internalType": "address",
          "name": "owner",
          "type": "address"
        },
        {
          "internalType": "uint256",
          "name": "fileSize",
          "type": "uint256"
        },
        {
          "internalType": "uint256",
          "name": "uploadTimestamp",
          "type": "uint256"
        },
        {
          "internalType": "bool",
          "name": "isPublic",
          "type": "bool"
        },
        {
          "internalType": "uint256",
          "name": "accessCount",
          "type": "uint256"
        }
      ],
      "stateMutability": "view",
      "type": "function"
    },
    {
      "inputs": [
        {
          "internalType": "address",
          "name": "_provider",
          "type": "address"
        }
      ],
      "name": "getProviderInfo",
      "outputs": [
        {
          "internalType": "uint256",
          "name": "totalStorage",
          "type": "uint256"
        },
        {
          "internalType": "uint256",
          "name": "usedStorage",
          "type": "uint256"
        },
        {
          "internalType": "uint256",
          "name": "reputation",
          "type": "uint256"
        },
        {
          "internalType": "bool",
          "name": "isActive",
          "type": "bool"
        }
      ],
      "stateMutability": "view",
      "type": "function"
    },
    {
      "inputs": [],
      "name": "getTotalFiles",
      "outputs": [
        {
          "internalType": "uint256",
          "name": "",
          "type": "uint256"
        }
      ],
      "stateMutability": "view",
      "type": "function"
    },
    {
      "inputs": [],
      "name": "getTotalProviders",
      "outputs": [
        {
          "internalType": "uint256",
          "name": "",
          "type": "uint256"
        }
      ],
      "stateMutability": "view",
      "type": "function"
    },
    {
      "inputs": [
        {
          "internalType": "string",
          "name": "_fileId",
          "type": "string"
        },
        {
          "internalType": "address",
          "name": "_user",
          "type": "address"
        }
      ],
      "name": "grantFileAccess",
      "outputs": [],
      "stateMutability": "nonpayable",
      "type": "function"
    },
    {
      "inputs": [],
      "name": "owner",
      "outputs": [
        {
          "internalType": "address",
          "name": "",
          "type": "address"
        }
      ],
      "stateMutability": "view",
      "type": "function"
    },
    {
      "inputs": [
        {
          "internalType": "uint256",
          "name": "_totalStorage",
          "type": "uint256"
        },
        {
          "internalType": "string",
          "name": "_nodeId",
          "type": "string"
        },
        {
          "internalType": "string",
          "name": "_region",
          "type": "string"
        }
      ],
      "name": "registerProvider",
      "outputs": [],
      "stateMutability": "nonpayable",
      "type": "function"
    },
    {
      "inputs": [],
      "name": "renounceOwnership",
      "outputs": [],
      "stateMutability": "nonpayable",
      "type": "function"
    },
    {
      "inputs": [
        {
          "internalType": "string",
          "name": "_fileId",
          "type": "string"
        },
        {
          "internalType": "address",
          "name": "_user",
          "type": "address"
        }
      ],
      "name": "revokeFileAccess",
      "outputs": [],
      "stateMutability": "nonpayable",
      "type": "function"
    },
    {
      "inputs": [
        {
          "internalType": "bytes32",
          "name": "",
          "type": "bytes32"
        }
      ],
      "name": "storageContracts",
      "outputs": [
        {
          "internalType": "string",
          "name": "fileId",
          "type": "string"
        },
        {
          "internalType": "address",
          "name": "provider",
          "type": "address"
        },
        {
          "internalType": "address",
          "name": "client",
          "type": "address"
        },
        {
          "internalType": "uint256",
          "name": "duration",
          "type": "uint256"
        },
        {
          "internalType": "uint256",
          "name": "startTime",
          "type": "uint256"
        },
        {
          "internalType": "uint256",
          "name": "endTime",
          "type": "uint256"
        },
        {
          "internalType": "bool",
          "name": "isActive",
          "type": "bool"
        },
        {
          "internalType": "uint256",
          "name": "lastProofTime",
          "type": "uint256"
        }
      ],
      "stateMutability": "view",
      "type": "function"
    },
    {
      "inputs": [
        {
          "internalType": "address",
          "name": "",
          "type": "address"
        }
      ],
      "name": "storageProviders",
      "outputs": [
        {
          "internalType": "address",
          "name": "providerAddress",
          "type": "address"
        },
        {
          "internalType": "uint256",
          "name": "totalStorage",
          "type": "uint256"
        },
        {
          "internalType": "uint256",
          "name": "usedStorage",
          "type": "uint256"
        },
        {
          "internalType": "uint256",
          "name": "reputation",
          "type": "uint256"
        },
        {
          "internalType": "bool",
          "name": "isActive",
          "type": "bool"
        },
        {
          "internalType": "uint256",
          "name": "joinedTimestamp",
          "type": "uint256"
        },
        {
          "internalType": "string",
          "name": "nodeId",
          "type": "string"
        },
        {
          "internalType": "string",
          "name": "region",
          "type": "string"
        }
      ],
      "stateMutability": "view",
      "type": "function"
    },
    {
      "inputs": [
        {
          "internalType": "bytes32",
          "name": "_contractId",
          "type": "bytes32"
        },
        {
          "internalType": "bytes32[]",
          "name": "_merkleProof",
          "type": "bytes32[]"
        },
        {
          "internalType": "bytes32",
          "name": "_challengeResponse",
          "type": "bytes32"
        }
      ],
      "name": "submitProofOfStorage",
      "outputs": [],
      "stateMutability": "nonpayable",
      "type": "function"
    },
    {
      "inputs": [
        {
          "internalType": "address",
          "name": "newOwner",
          "type": "address"
        }
      ],
      "name": "transferOwnership",
      "outputs": [],
      "stateMutability": "nonpayable",
      "type": "function"
    },
    {
      "inputs": [
        {
          "internalType": "string",
          "name": "_fileId",
          "type": "string"
        },
        {
          "internalType": "string",
          "name": "_contentHash",
          "type": "string"
        },
        {
          "internalType": "uint256",
          "name": "_fileSize",
          "type": "uint256"
        },
        {
          "internalType": "string",
          "name": "_encryptionKey",
          "type": "string"
        },
        {
          "internalType": "bool",
          "name": "_isPublic",
          "type": "bool"
        },
        {
          "internalType": "string[]",
          "name": "_tags",
          "type": "string[]"
        },
        {
          "internalType": "uint256",
          "name": "_replicationFactor",
          "type": "uint256"
        }
      ],
      "name": "uploadFile",
      "outputs": [],
      "stateMutability": "nonpayable",
      "type": "function"
    }
  ],
  "bytecode": "0x60806040523480156200001157600080fd5b5033600073ffffffffffffffffffffffffffffffffffffffff168173ffffffffffffffffffffffffffffffffffffffff1603620000885760006040517f1e4fbdf70000000000000000000000000000000000000000000000000000000081526004016200007f9190620001b0565b60405180910390fd5b6200009981620000a760201b60201c565b5060018081905550620001cd565b60008060009054906101000a900473ffffffffffffffffffffffffffffffffffffffff169050816000806101000a81548173ffffffffffffffffffffffffffffffffffffffff021916908373ffffffffffffffffffffffffffffffffffffffff1602179055508173ffffffffffffffffffffffffffffffffffffffff168173ffffffffffffffffffffffffffffffffffffffff167f8be0079c531659141344cd1fd0a4f28419497f9722a3daafe3b4186f6b6457e060405160405180910390a35050565b600073ffffffffffffffffffffffffffffffffffffffff82169050919050565b600062000198826200016b565b9050919050565b620001aa816200018b565b82525050565b6000602082019050620001c760008301846200019f565b92915050565b613dcf80620001dd6000396000f3fe608060405234801561001057600080fd5b50600436106101365760003560e01c8063766e0d33116100b8578063bc0a8ae41161007c578063bc0a8ae414610364578063d213c0f214610380578063d59de8601461039e578063e45cd365146103d5578063f20c180c146103f1578063f2fde38b1461040f57610136565b8063766e0d33146102be57806378f0084e146102dc5780638da5cb5b146102f8578063a7b1f7c014610316578063b5710a301461034657610136565b80635da471d1116100ff5780635da471d1146101e157806360c351c014610211578063715018a61461024857806372c6a94e146102525780637583902f1461028b57610136565b806297681f1461013b5780630c4924bf146101575780630cc9c17b146101735780632977ba39146101a95780635714d952146101c5575b600080fd5b610155600480360381019061015091906126ff565b61042b565b005b610171600480360381019061016c919061275b565b610670565b005b61018d600480360381019061018891906127b7565b610783565b6040516101a097969594939291906128c2565b60405180910390f35b6101c360048036038101906101be919061275b565b61092f565b005b6101df60048036038101906101da91906127b7565b610a42565b005b6101fb60048036038101906101f6919061296b565b610c37565b6040516102089190612998565b60405180910390f35b61022b600480360381019061022691906129b3565b610c76565b60405161023f9897969594939291906129e0565b60405180910390f35b610250610dfb565b005b61026c600480360381019061026791906127b7565b610e0f565b6040516102829a99989796959493929190612a6c565b60405180910390f35b6102a560048036038101906102a091906129b3565b61103e565b6040516102b59493929190612b1d565b60405180910390f35b6102c66110b8565b6040516102d39190612b62565b60405180910390f35b6102f660048036038101906102f19190612c7b565b6110c5565b005b6103006113e2565b60405161030d9190612998565b60405180910390f35b610330600480360381019061032b919061296b565b61140b565b60405161033d9190612cea565b60405180910390f35b61034e6114b7565b60405161035b9190612b62565b60405180910390f35b61037e60048036038101906103799190612d0c565b6114be565b005b61038861179a565b6040516103959190612b62565b60405180910390f35b6103b860048036038101906103b39190612d97565b6117a0565b6040516103cc989796959493929190612dc4565b60405180910390f35b6103ef60048036038101906103ea9190612f56565b6118bd565b005b6103f9611bf3565b6040516104069190612b62565b60405180910390f35b610429600480360381019061042491906129b3565b611c00565b005b610433611c86565b6000600260008473ffffffffffffffffffffffffffffffffffffffff1673ffffffffffffffffffffffffffffffffffffffff16815260200190815260200160002090508060040160009054906101000a900460ff166104c7576040517f08c379a00000000000000000000000000000000000000000000000000000000081526004016104be906130b4565b60405180910390fd5b60008160040160006101000a81548160ff02191690831515021790555060005b60058054905081101561066a578373ffffffffffffffffffffffffffffffffffffffff166005828154811061051f5761051e6130d4565b5b9060005260206000200160009054906101000a900473ffffffffffffffffffffffffffffffffffffffff1673ffffffffffffffffffffffffffffffffffffffff160361065d57600560016005805490506105799190613132565b8154811061058a576105896130d4565b5b9060005260206000200160009054906101000a900473ffffffffffffffffffffffffffffffffffffffff16600582815481106105c9576105c86130d4565b5b9060005260206000200160006101000a81548173ffffffffffffffffffffffffffffffffffffffff021916908373ffffffffffffffffffffffffffffffffffffffff160217905550600580548061062357610622613166565b5b6001900381819060005260206000200160006101000a81549073ffffffffffffffffffffffffffffffffffffffff0219169055905561066a565b80806001019150506104e7565b50505050565b600060038360405161068291906131d1565b908152602001604051809103902090503373ffffffffffffffffffffffffffffffffffffffff168160020160009054906101000a900473ffffffffffffffffffffffffffffffffffffffff1673ffffffffffffffffffffffffffffffffffffffff1614610724576040517f08c379a000000000000000000000000000000000000000000000000000000000815260040161071b90613234565b60405180910390fd5b600181600a0160008473ffffffffffffffffffffffffffffffffffffffff1673ffffffffffffffffffffffffffffffffffffffff16815260200190815260200160002060006101000a81548160ff021916908315150217905550505050565b60608060008060008060008060038960405161079f91906131d1565b9081526020016040518091039020905080600001816001018260020160009054906101000a900473ffffffffffffffffffffffffffffffffffffffff16836003015484600401548560070160009054906101000a900460ff16866008015486805461080990613283565b80601f016020809104026020016040519081016040528092919081815260200182805461083590613283565b80156108825780601f1061085757610100808354040283529160200191610882565b820191906000526020600020905b81548152906001019060200180831161086557829003601f168201915b5050505050965085805461089590613283565b80601f01602080910402602001604051908101604052809291908181526020018280546108c190613283565b801561090e5780601f106108e35761010080835404028352916020019161090e565b820191906000526020600020905b8154815290600101906020018083116108f157829003601f168201915b50505050509550975097509750975097509750975050919395979092949650565b600060038360405161094191906131d1565b908152602001604051809103902090503373ffffffffffffffffffffffffffffffffffffffff168160020160009054906101000a900473ffffffffffffffffffffffffffffffffffffffff1673ffffffffffffffffffffffffffffffffffffffff16146109e3576040517f08c379a00000000000000000000000000000000000000000000000000000000081526004016109da90613300565b60405180910390fd5b600081600a0160008473ffffffffffffffffffffffffffffffffffffffff1673ffffffffffffffffffffffffffffffffffffffff16815260200190815260200160002060006101000a81548160ff021916908315150217905550505050565b6000600382604051610a5491906131d1565b908152602001604051809103902090506000816000018054610a7590613283565b905011610ab7576040517f08c379a0000000000000000000000000000000000000000000000000000000008152600401610aae9061336c565b60405180910390fd5b8060070160009054906101000a900460ff1680610b2357503373ffffffffffffffffffffffffffffffffffffffff168160020160009054906101000a900473ffffffffffffffffffffffffffffffffffffffff1673ffffffffffffffffffffffffffffffffffffffff16145b80610b79575080600a0160003373ffffffffffffffffffffffffffffffffffffffff1673ffffffffffffffffffffffffffffffffffffffff16815260200190815260200160002060009054906101000a900460ff165b610bb8576040517f08c379a0000000000000000000000000000000000000000000000000000000008152600401610baf906133d8565b60405180910390fd5b42816005018190555060018160080154610bd291906133f8565b81600801819055503373ffffffffffffffffffffffffffffffffffffffff1682604051610bff91906131d1565b60405180910390207f30fc9a68ddc0a1f0adb56090586e2decbc9a7e3be01c5e6f5b9836db8598bd1a60405160405180910390a35050565b60058181548110610c4757600080fd5b906000526020600020016000915054906101000a900473ffffffffffffffffffffffffffffffffffffffff1681565b60026020528060005260406000206000915090508060000160009054906101000a900473ffffffffffffffffffffffffffffffffffffffff16908060010154908060020154908060030154908060040160009054906101000a900460ff1690806005015490806006018054610cea90613283565b80601f0160208091040260200160405190810160405280929190818152602001828054610d1690613283565b8015610d635780601f10610d3857610100808354040283529160200191610d63565b820191906000526020600020905b815481529060010190602001808311610d4657829003601f168201915b505050505090806007018054610d7890613283565b80601f0160208091040260200160405190810160405280929190818152602001828054610da490613283565b8015610df15780601f10610dc657610100808354040283529160200191610df1565b820191906000526020600020905b815481529060010190602001808311610dd457829003601f168201915b5050505050905088565b610e03611c86565b610e0d6000611d0d565b565b600381805160208101820180518482526020830160208501208183528095505050505050600091509050806000018054610e4890613283565b80601f0160208091040260200160405190810160405280929190818152602001828054610e7490613283565b8015610ec15780601f10610e9657610100808354040283529160200191610ec1565b820191906000526020600020905b815481529060010190602001808311610ea457829003601f168201915b505050505090806001018054610ed690613283565b80601f0160208091040260200160405190810160405280929190818152602001828054610f0290613283565b8015610f4f5780601f10610f2457610100808354040283529160200191610f4f565b820191906000526020600020905b815481529060010190602001808311610f3257829003601f168201915b5050505050908060020160009054906101000a900473ffffffffffffffffffffffffffffffffffffffff1690806003015490806004015490806005015490806006018054610f9c90613283565b80601f0160208091040260200160405190810160405280929190818152602001828054610fc890613283565b80156110155780601f10610fea57610100808354040283529160200191611015565b820191906000526020600020905b815481529060010190602001808311610ff857829003601f168201915b5050505050908060070160009054906101000a900460ff169080600801549080600c015490508a565b6000806000806000600260008773ffffffffffffffffffffffffffffffffffffffff1673ffffffffffffffffffffffffffffffffffffffff16815260200190815260200160002090508060010154816002015482600301548360040160009054906101000a900460ff169450945094509450509193509193565b6000600680549050905090565b60006004600085815260200190815260200160002090508060060160009054906101000a900460ff1661112d576040517f08c379a000000000000000000000000000000000000000000000000000000000815260040161112490613478565b60405180910390fd5b3373ffffffffffffffffffffffffffffffffffffffff168160010160009054906101000a900473ffffffffffffffffffffffffffffffffffffffff1673ffffffffffffffffffffffffffffffffffffffff16146111bf576040517f08c379a00000000000000000000000000000000000000000000000000000000081526004016111b6906134e4565b60405180910390fd5b6201518081600701546111d291906133f8565b421015611214576040517f08c379a000000000000000000000000000000000000000000000000000000000815260040161120b90613550565b60405180910390fd5b60006112ad848484600001805461122a90613283565b80601f016020809104026020016040519081016040528092919081815260200182805461125690613283565b80156112a35780601f10611278576101008083540402835291602001916112a3565b820191906000526020600020905b81548152906001019060200180831161128657829003601f168201915b5050505050611dd1565b90506000600260003373ffffffffffffffffffffffffffffffffffffffff1673ffffffffffffffffffffffffffffffffffffffff16815260200190815260200160002090508115611369576103e881600301541015611320576001816003015461131791906133f8565b81600301819055505b428360070181905550857ffc2139fecdef336b577485e7b8178aa21179f91de71395d1424e6ccf7a59038633600160405161135c929190613570565b60405180910390a26113da565b600a81600301541061139357600a81600301546113869190613132565b816003018190555061139e565b600081600301819055505b857ffc2139fecdef336b577485e7b8178aa21179f91de71395d1424e6ccf7a5903863360006040516113d1929190613570565b60405180910390a25b505050505050565b60008060009054906101000a900473ffffffffffffffffffffffffffffffffffffffff16905090565b6006818154811061141b57600080fd5b90600052602060002001600091509050805461143690613283565b80601f016020809104026020016040519081016040528092919081815260200182805461146290613283565b80156114af5780601f10611484576101008083540402835291602001916114af565b820191906000526020600020905b81548152906001019060200180831161149257829003601f168201915b505050505081565b6201518081565b60008311611501576040517f08c379a00000000000000000000000000000000000000000000000000000000081526004016114f89061360b565b60405180910390fd5b600260003373ffffffffffffffffffffffffffffffffffffffff1673ffffffffffffffffffffffffffffffffffffffff16815260200190815260200160002060040160009054906101000a900460ff1615611591576040517f08c379a000000000000000000000000000000000000000000000000000000000815260040161158890613677565b60405180910390fd5b6040518061010001604052803373ffffffffffffffffffffffffffffffffffffffff168152602001848152602001600081526020016101f4815260200160011515815260200142815260200183815260200182815250600260003373ffffffffffffffffffffffffffffffffffffffff1673ffffffffffffffffffffffffffffffffffffffff16815260200190815260200160002060008201518160000160006101000a81548173ffffffffffffffffffffffffffffffffffffffff021916908373ffffffffffffffffffffffffffffffffffffffff16021790555060208201518160010155604082015181600201556060820151816003015560808201518160040160006101000a81548160ff02191690831515021790555060a0820151816005015560c08201518160060190816116ca9190613843565b5060e08201518160070190816116e09190613843565b509050506005339080600181540180825580915050600190039060005260206000200160009091909190916101000a81548173ffffffffffffffffffffffffffffffffffffffff021916908373ffffffffffffffffffffffffffffffffffffffff1602179055503373ffffffffffffffffffffffffffffffffffffffff167fa00c17d90dc9545180b0d6f2e70cc74863ee2e01212b81d549aa3cb67150c9368360405161178d9190612cea565b60405180910390a2505050565b6103e881565b60046020528060005260406000206000915090508060000180546117c390613283565b80601f01602080910402602001604051908101604052809291908181526020018280546117ef90613283565b801561183c5780601f106118115761010080835404028352916020019161183c565b820191906000526020600020905b81548152906001019060200180831161181f57829003601f168201915b5050505050908060010160009054906101000a900473ffffffffffffffffffffffffffffffffffffffff16908060020160009054906101000a900473ffffffffffffffffffffffffffffffffffffffff16908060030154908060040154908060050154908060060160009054906101000a900460ff16908060070154905088565b6000875111611901576040517f08c379a00000000000000000000000000000000000000000000000000000000081526004016118f890613961565b60405180910390fd5b6000865111611945576040517f08c379a000000000000000000000000000000000000000000000000000000000815260040161193c906139cd565b60405180910390fd5b60008511611988576040517f08c379a000000000000000000000000000000000000000000000000000000000815260040161197f90613a39565b60405180910390fd5b6000811180156119995750600a8111155b6119d8576040517f08c379a00000000000000000000000000000000000000000000000000000000081526004016119cf90613aa5565b60405180910390fd5b60006003886040516119ea91906131d1565b90815260200160405180910390206000018054611a0690613283565b905014611a48576040517f08c379a0000000000000000000000000000000000000000000000000000000008152600401611a3f90613b11565b60405180910390fd5b6000600388604051611a5a91906131d1565b9081526020016040518091039020905087816000019081611a7b9190613843565b5086816001019081611a8d9190613843565b50338160020160006101000a81548173ffffffffffffffffffffffffffffffffffffffff021916908373ffffffffffffffffffffffffffffffffffffffff16021790555085816003018190555042816004018190555042816005018190555084816006019081611afd9190613843565b50838160070160006101000a81548160ff0219169083151502179055506000816008018190555082816009019080519060200190611b3c92919061246d565b508181600c0181905550600688908060018154018082558091505060019003906000526020600020016000909190919091509081611b7a9190613843565b503373ffffffffffffffffffffffffffffffffffffffff1688604051611ba091906131d1565b60405180910390207f0b676c33880daff1a31fa6365b07f18cfc698e569ddd7b25365d68cfb7e6e7eb88604051611bd79190612b62565b60405180910390a3611be98883611dfc565b5050505050505050565b6000600580549050905090565b611c08611c86565b600073ffffffffffffffffffffffffffffffffffffffff168173ffffffffffffffffffffffffffffffffffffffff1603611c7a5760006040517f1e4fbdf7000000000000000000000000000000000000000000000000000000008152600401611c719190612998565b60405180910390fd5b611c8381611d0d565b50565b611c8e612161565b73ffffffffffffffffffffffffffffffffffffffff16611cac6113e2565b73ffffffffffffffffffffffffffffffffffffffff1614611d0b57611ccf612161565b6040517f118cdaa7000000000000000000000000000000000000000000000000000000008152600401611d029190612998565b60405180910390fd5b565b60008060009054906101000a900473ffffffffffffffffffffffffffffffffffffffff169050816000806101000a81548173ffffffffffffffffffffffffffffffffffffffff021916908373ffffffffffffffffffffffffffffffffffffffff1602179055508173ffffffffffffffffffffffffffffffffffffffff168173ffffffffffffffffffffffffffffffffffffffff167f8be0079c531659141344cd1fd0a4f28419497f9722a3daafe3b4186f6b6457e060405160405180910390a35050565b6000808451118015611de657506000801b8314155b8015611df3575060008251115b90509392505050565b6000611e2982600385604051611e1291906131d1565b908152602001604051809103902060030154612169565b905060005b815181101561215b576000828281518110611e4c57611e4b6130d4565b5b602002602001015190506000600260008373ffffffffffffffffffffffffffffffffffffffff1673ffffffffffffffffffffffffffffffffffffffff16815260200190815260200160002090506000868342604051602001611eb093929190613b9a565b604051602081830303815290604052805190602001209050600061016d90506040518061010001604052808981526020018573ffffffffffffffffffffffffffffffffffffffff1681526020013373ffffffffffffffffffffffffffffffffffffffff1681526020018281526020014281526020016201518083611f349190613bd3565b42611f3f91906133f8565b815260200160011515815260200142815250600460008481526020019081526020016000206000820151816000019081611f799190613843565b5060208201518160010160006101000a81548173ffffffffffffffffffffffffffffffffffffffff021916908373ffffffffffffffffffffffffffffffffffffffff16021790555060408201518160020160006101000a81548173ffffffffffffffffffffffffffffffffffffffff021916908373ffffffffffffffffffffffffffffffffffffffff160217905550606082015181600301556080820151816004015560a0820151816005015560c08201518160060160006101000a81548160ff02191690831515021790555060e0820151816007015590505060038860405161206391906131d1565b908152602001604051809103902060030154836002015461208491906133f8565b836002018190555060038860405161209c91906131d1565b9081526020016040518091039020600b01849080600181540180825580915050600190039060005260206000200160009091909190916101000a81548173ffffffffffffffffffffffffffffffffffffffff021916908373ffffffffffffffffffffffffffffffffffffffff160217905550817fed2d4ef4f53758f4bdcd130e44e9db741083142198a4f58c6336be5a443471e389863360405161214293929190613c15565b60405180910390a2505050508080600101915050611e2e565b50505050565b600033905090565b60606005805490508311156121b3576040517f08c379a00000000000000000000000000000000000000000000000000000000081526004016121aa90613c9f565b60405180910390fd5b600060058054905067ffffffffffffffff8111156121d4576121d36125d4565b5b6040519080825280602002602001820160405280156122025781602001602082028036833780820191505090505b5090506000805b60058054905081101561233e5760006005828154811061222c5761222b6130d4565b5b9060005260206000200160009054906101000a900473ffffffffffffffffffffffffffffffffffffffff1690506000600260008373ffffffffffffffffffffffffffffffffffffffff1673ffffffffffffffffffffffffffffffffffffffff16815260200190815260200160002090508060040160009054906101000a900460ff1680156122cd575086816002015482600101546122ca9190613132565b10155b1561232f57818585815181106122e6576122e56130d4565b5b602002602001019073ffffffffffffffffffffffffffffffffffffffff16908173ffffffffffffffffffffffffffffffffffffffff1681525050838061232b90613cbf565b9450505b50508080600101915050612209565b5084811015612382576040517f08c379a000000000000000000000000000000000000000000000000000000000815260040161237990613d79565b60405180910390fd5b60008567ffffffffffffffff81111561239e5761239d6125d4565b5b6040519080825280602002602001820160405280156123cc5781602001602082028036833780820191505090505b50905060005b86811080156123e057508281105b15612460578381815181106123f8576123f76130d4565b5b6020026020010151828281518110612413576124126130d4565b5b602002602001019073ffffffffffffffffffffffffffffffffffffffff16908173ffffffffffffffffffffffffffffffffffffffff1681525050808061245890613cbf565b9150506123d2565b5080935050505092915050565b8280548282559060005260206000209081019282156124b5579160200282015b828111156124b45782518290816124a49190613843565b509160200191906001019061248d565b5b5090506124c291906124c6565b5090565b5b808211156124e657600081816124dd91906124ea565b506001016124c7565b5090565b5080546124f690613283565b6000825580601f106125085750612527565b601f016020900490600052602060002090810190612526919061252a565b5b50565b5b8082111561254357600081600090555060010161252b565b5090565b6000604051905090565b600080fd5b600080fd5b600073ffffffffffffffffffffffffffffffffffffffff82169050919050565b60006125868261255b565b9050919050565b6125968161257b565b81146125a157600080fd5b50565b6000813590506125b38161258d565b92915050565b600080fd5b600080fd5b6000601f19601f8301169050919050565b7f4e487b7100000000000000000000000000000000000000000000000000000000600052604160045260246000fd5b61260c826125c3565b810181811067ffffffffffffffff8211171561262b5761262a6125d4565b5b80604052505050565b600061263e612547565b905061264a8282612603565b919050565b600067ffffffffffffffff82111561266a576126696125d4565b5b612673826125c3565b9050602081019050919050565b82818337600083830152505050565b60006126a261269d8461264f565b612634565b9050828152602081018484840111156126be576126bd6125be565b5b6126c9848285612680565b509392505050565b600082601f8301126126e6576126e56125b9565b5b81356126f684826020860161268f565b91505092915050565b6000806040838503121561271657612715612551565b5b6000612724858286016125a4565b925050602083013567ffffffffffffffff81111561274557612744612556565b5b612751858286016126d1565b9150509250929050565b6000806040838503121561277257612771612551565b5b600083013567ffffffffffffffff8111156127905761278f612556565b5b61279c858286016126d1565b92505060206127ad858286016125a4565b9150509250929050565b6000602082840312156127cd576127cc612551565b5b600082013567ffffffffffffffff8111156127eb576127ea612556565b5b6127f7848285016126d1565b91505092915050565b600081519050919050565b600082825260208201905092915050565b60005b8381101561283a57808201518184015260208101905061281f565b60008484015250505050565b600061285182612800565b61285b818561280b565b935061286b81856020860161281c565b612874816125c3565b840191505092915050565b6128888161257b565b82525050565b6000819050919050565b6128a18161288e565b82525050565b60008115159050919050565b6128bc816128a7565b82525050565b600060e08201905081810360008301526128dc818a612846565b905081810360208301526128f08189612846565b90506128ff604083018861287f565b61290c6060830187612898565b6129196080830186612898565b61292660a08301856128b3565b61293360c0830184612898565b98975050505050505050565b6129488161288e565b811461295357600080fd5b50565b6000813590506129658161293f565b92915050565b60006020828403121561298157612980612551565b5b600061298f84828501612956565b91505092915050565b60006020820190506129ad600083018461287f565b92915050565b6000602082840312156129c9576129c8612551565b5b60006129d7848285016125a4565b91505092915050565b6000610100820190506129f6600083018b61287f565b612a03602083018a612898565b612a106040830189612898565b612a1d6060830188612898565b612a2a60808301876128b3565b612a3760a0830186612898565b81810360c0830152612a498185612846565b905081810360e0830152612a5d8184612846565b90509998505050505050505050565b6000610140820190508181036000830152612a87818d612846565b90508181036020830152612a9b818c612846565b9050612aaa604083018b61287f565b612ab7606083018a612898565b612ac46080830189612898565b612ad160a0830188612898565b81810360c0830152612ae38187612846565b9050612af260e08301866128b3565b612b00610100830185612898565b612b0e610120830184612898565b9b9a5050505050505050505050565b6000608082019050612b326000830187612898565b612b3f6020830186612898565b612b4c6040830185612898565b612b5960608301846128b3565b95945050505050565b6000602082019050612b776000830184612898565b92915050565b6000819050919050565b612b9081612b7d565b8114612b9b57600080fd5b50565b600081359050612bad81612b87565b92915050565b600067ffffffffffffffff821115612bce57612bcd6125d4565b5b602082029050602081019050919050565b600080fd5b6000612bf7612bf284612bb3565b612634565b90508083825260208201905060208402830185811115612c1a57612c19612bdf565b5b835b81811015612c435780612c2f8882612b9e565b845260208401935050602081019050612c1c565b5050509392505050565b600082601f830112612c6257612c616125b9565b5b8135612c72848260208601612be4565b91505092915050565b600080600060608486031215612c9457612c93612551565b5b6000612ca286828701612b9e565b935050602084013567ffffffffffffffff811115612cc357612cc2612556565b5b612ccf86828701612c4d565b9250506040612ce086828701612b9e565b9150509250925092565b60006020820190508181036000830152612d048184612846565b905092915050565b600080600060608486031215612d2557612d24612551565b5b6000612d3386828701612956565b935050602084013567ffffffffffffffff811115612d5457612d53612556565b5b612d60868287016126d1565b925050604084013567ffffffffffffffff811115612d8157612d80612556565b5b612d8d868287016126d1565b9150509250925092565b600060208284031215612dad57612dac612551565b5b6000612dbb84828501612b9e565b91505092915050565b6000610100820190508181036000830152612ddf818b612846565b9050612dee602083018a61287f565b612dfb604083018961287f565b612e086060830188612898565b612e156080830187612898565b612e2260a0830186612898565b612e2f60c08301856128b3565b612e3c60e0830184612898565b9998505050505050505050565b612e52816128a7565b8114612e5d57600080fd5b50565b600081359050612e6f81612e49565b92915050565b600067ffffffffffffffff821115612e9057612e8f6125d4565b5b602082029050602081019050919050565b6000612eb4612eaf84612e75565b612634565b90508083825260208201905060208402830185811115612ed757612ed6612bdf565b5b835b81811015612f1e57803567ffffffffffffffff811115612efc57612efb6125b9565b5b808601612f0989826126d1565b85526020850194505050602081019050612ed9565b5050509392505050565b600082601f830112612f3d57612f3c6125b9565b5b8135612f4d848260208601612ea1565b91505092915050565b600080600080600080600060e0888a031215612f7557612f74612551565b5b600088013567ffffffffffffffff811115612f9357612f92612556565b5b612f9f8a828b016126d1565b975050602088013567ffffffffffffffff811115612fc057612fbf612556565b5b612fcc8a828b016126d1565b9650506040612fdd8a828b01612956565b955050606088013567ffffffffffffffff811115612ffe57612ffd612556565b5b61300a8a828b016126d1565b945050608061301b8a828b01612e60565b93505060a088013567ffffffffffffffff81111561303c5761303b612556565b5b6130488a828b01612f28565b92505060c06130598a828b01612956565b91505092959891949750929550565b7f50726f7669646572206973206e6f742061637469766500000000000000000000600082015250565b600061309e60168361280b565b91506130a982613068565b602082019050919050565b600060208201905081810360008301526130cd81613091565b9050919050565b7f4e487b7100000000000000000000000000000000000000000000000000000000600052603260045260246000fd5b7f4e487b7100000000000000000000000000000000000000000000000000000000600052601160045260246000fd5b600061313d8261288e565b91506131488361288e565b92508282039050818111156131605761315f613103565b5b92915050565b7f4e487b7100000000000000000000000000000000000000000000000000000000600052603160045260246000fd5b600081905092915050565b60006131ab82612800565b6131b58185613195565b93506131c581856020860161281c565b80840191505092915050565b60006131dd82846131a0565b915081905092915050565b7f4f6e6c79206f776e65722063616e206772616e74206163636573730000000000600082015250565b600061321e601b8361280b565b9150613229826131e8565b602082019050919050565b6000602082019050818103600083015261324d81613211565b9050919050565b7f4e487b7100000000000000000000000000000000000000000000000000000000600052602260045260246000fd5b6000600282049050600182168061329b57607f821691505b6020821081036132ae576132ad613254565b5b50919050565b7f4f6e6c79206f776e65722063616e207265766f6b652061636365737300000000600082015250565b60006132ea601c8361280b565b91506132f5826132b4565b602082019050919050565b60006020820190508181036000830152613319816132dd565b9050919050565b7f46696c6520646f6573206e6f7420657869737400000000000000000000000000600082015250565b600061335660138361280b565b915061336182613320565b602082019050919050565b6000602082019050818103600083015261338581613349565b9050919050565b7f4163636573732064656e69656400000000000000000000000000000000000000600082015250565b60006133c2600d8361280b565b91506133cd8261338c565b602082019050919050565b600060208201905081810360008301526133f1816133b5565b9050919050565b60006134038261288e565b915061340e8361288e565b925082820190508082111561342657613425613103565b5b92915050565b7f436f6e7472616374206973206e6f742061637469766500000000000000000000600082015250565b600061346260168361280b565b915061346d8261342c565b602082019050919050565b6000602082019050818103600083015261349181613455565b9050919050565b7f4f6e6c792070726f76696465722063616e207375626d69742070726f6f660000600082015250565b60006134ce601e8361280b565b91506134d982613498565b602082019050919050565b600060208201905081810360008301526134fd816134c1565b9050919050565b7f50726f6f66207375626d697474656420746f6f206561726c7900000000000000600082015250565b600061353a60198361280b565b915061354582613504565b602082019050919050565b600060208201905081810360008301526135698161352d565b9050919050565b6000604082019050613585600083018561287f565b61359260208301846128b3565b9392505050565b7f53746f72616765206361706163697479206d757374206265206772656174657260008201527f207468616e203000000000000000000000000000000000000000000000000000602082015250565b60006135f560278361280b565b915061360082613599565b604082019050919050565b60006020820190508181036000830152613624816135e8565b9050919050565b7f50726f766964657220616c726561647920726567697374657265640000000000600082015250565b6000613661601b8361280b565b915061366c8261362b565b602082019050919050565b6000602082019050818103600083015261369081613654565b9050919050565b60008190508160005260206000209050919050565b60006020601f8301049050919050565b600082821b905092915050565b6000600883026136f97fffffffffffffffffffffffffffffffffffffffffffffffffffffffffffffffff826136bc565b61370386836136bc565b95508019841693508086168417925050509392505050565b6000819050919050565b600061374061373b6137368461288e565b61371b565b61288e565b9050919050565b6000819050919050565b61375a83613725565b61376e61376682613747565b8484546136c9565b825550505050565b600090565b613783613776565b61378e818484613751565b505050565b5b818110156137b2576137a760008261377b565b600181019050613794565b5050565b601f8211156137f7576137c881613697565b6137d1846136ac565b810160208510156137e0578190505b6137f46137ec856136ac565b830182613793565b50505b505050565b600082821c905092915050565b600061381a600019846008026137fc565b1980831691505092915050565b60006138338383613809565b9150826002028217905092915050565b61384c82612800565b67ffffffffffffffff811115613865576138646125d4565b5b61386f8254613283565b61387a8282856137b6565b600060209050601f8311600181146138ad576000841561389b578287015190505b6138a58582613827565b86555061390d565b601f1984166138bb86613697565b60005b828110156138e3578489015182556001820191506020850194506020810190506138be565b8683101561390057848901516138fc601f891682613809565b8355505b6001600288020188555050505b505050505050565b7f46696c652049442063616e6e6f7420626520656d707479000000000000000000600082015250565b600061394b60178361280b565b915061395682613915565b602082019050919050565b6000602082019050818103600083015261397a8161393e565b9050919050565b7f436f6e74656e7420686173682063616e6e6f7420626520656d70747900000000600082015250565b60006139b7601c8361280b565b91506139c282613981565b602082019050919050565b600060208201905081810360008301526139e6816139aa565b9050919050565b7f46696c652073697a65206d7573742062652067726561746572207468616e2030600082015250565b6000613a2360208361280b565b9150613a2e826139ed565b602082019050919050565b60006020820190508181036000830152613a5281613a16565b9050919050565b7f496e76616c6964207265706c69636174696f6e20666163746f72000000000000600082015250565b6000613a8f601a8361280b565b9150613a9a82613a59565b602082019050919050565b60006020820190508181036000830152613abe81613a82565b9050919050565b7f46696c6520616c72656164792065786973747300000000000000000000000000600082015250565b6000613afb60138361280b565b9150613b0682613ac5565b602082019050919050565b60006020820190508181036000830152613b2a81613aee565b9050919050565b60008160601b9050919050565b6000613b4982613b31565b9050919050565b6000613b5b82613b3e565b9050919050565b613b73613b6e8261257b565b613b50565b82525050565b6000819050919050565b613b94613b8f8261288e565b613b79565b82525050565b6000613ba682866131a0565b9150613bb28285613b62565b601482019150613bc28284613b83565b602082019150819050949350505050565b6000613bde8261288e565b9150613be98361288e565b9250828202613bf78161288e565b91508282048414831517613c0e57613c0d613103565b5b5092915050565b60006060820190508181036000830152613c2f8186612846565b9050613c3e602083018561287f565b613c4b604083018461287f565b949350505050565b7f4e6f7420656e6f756768206163746976652070726f7669646572730000000000600082015250565b6000613c89601b8361280b565b9150613c9482613c53565b602082019050919050565b60006020820190508181036000830152613cb881613c7c565b9050919050565b6000613cca8261288e565b91507fffffffffffffffffffffffffffffffffffffffffffffffffffffffffffffffff8203613cfc57613cfb613103565b5b600182019050919050565b7f4e6f7420656e6f75676820617661696c61626c652073746f726167652063617060008201527f6163697479000000000000000000000000000000000000000000000000000000602082015250565b6000613d6360258361280b565b9150613d6e82613d07565b604082019050919050565b60006020820190508181036000830152613d9281613d56565b905091905056fea26469706673582212201e51136cf720b8fc7579fc4012ad9bce053f11f707140299a6e314ae605685c464736f6c63430008180033",
  "linkReferences": {},
  "deployedLinkReferences": {}
}